{
  "_format": "hh-sol-artifact-1",
  "contractName": "LazyMintNFT",
  "sourceName": "contracts/LazyMintNFT.sol",
  "abi": [
    {
      "inputs": [
        {
          "internalType": "address",
          "name": "_signer",
          "type": "address"
        }
      ],
      "stateMutability": "nonpayable",
      "type": "constructor"
    },
    {
      "anonymous": false,
      "inputs": [
        {
          "indexed": true,
          "internalType": "address",
          "name": "owner",
          "type": "address"
        },
        {
          "indexed": true,
          "internalType": "address",
          "name": "approved",
          "type": "address"
        },
        {
          "indexed": true,
          "internalType": "uint256",
          "name": "tokenId",
          "type": "uint256"
        }
      ],
      "name": "Approval",
      "type": "event"
    },
    {
      "anonymous": false,
      "inputs": [
        {
          "indexed": true,
          "internalType": "address",
          "name": "owner",
          "type": "address"
        },
        {
          "indexed": true,
          "internalType": "address",
          "name": "operator",
          "type": "address"
        },
        {
          "indexed": false,
          "internalType": "bool",
          "name": "approved",
          "type": "bool"
        }
      ],
      "name": "ApprovalForAll",
      "type": "event"
    },
    {
      "anonymous": false,
      "inputs": [
        {
          "indexed": false,
          "internalType": "uint256",
          "name": "_fromTokenId",
          "type": "uint256"
        },
        {
          "indexed": false,
          "internalType": "uint256",
          "name": "_toTokenId",
          "type": "uint256"
        }
      ],
      "name": "BatchMetadataUpdate",
      "type": "event"
    },
    {
      "anonymous": false,
      "inputs": [
        {
          "indexed": false,
          "internalType": "uint256",
          "name": "_tokenId",
          "type": "uint256"
        }
      ],
      "name": "MetadataUpdate",
      "type": "event"
    },
    {
      "anonymous": false,
      "inputs": [
        {
          "indexed": true,
          "internalType": "address",
          "name": "previousOwner",
          "type": "address"
        },
        {
          "indexed": true,
          "internalType": "address",
          "name": "newOwner",
          "type": "address"
        }
      ],
      "name": "OwnershipTransferred",
      "type": "event"
    },
    {
      "anonymous": false,
      "inputs": [
        {
          "indexed": true,
          "internalType": "address",
          "name": "from",
          "type": "address"
        },
        {
          "indexed": true,
          "internalType": "address",
          "name": "to",
          "type": "address"
        },
        {
          "indexed": true,
          "internalType": "uint256",
          "name": "tokenId",
          "type": "uint256"
        }
      ],
      "name": "Transfer",
      "type": "event"
    },
    {
      "inputs": [
        {
          "internalType": "address",
          "name": "to",
          "type": "address"
        },
        {
          "internalType": "uint256",
          "name": "tokenId",
          "type": "uint256"
        }
      ],
      "name": "approve",
      "outputs": [],
      "stateMutability": "nonpayable",
      "type": "function"
    },
    {
      "inputs": [
        {
          "internalType": "address",
          "name": "owner",
          "type": "address"
        }
      ],
      "name": "balanceOf",
      "outputs": [
        {
          "internalType": "uint256",
          "name": "",
          "type": "uint256"
        }
      ],
      "stateMutability": "view",
      "type": "function"
    },
    {
      "inputs": [
        {
          "internalType": "uint256",
          "name": "tokenId",
          "type": "uint256"
        }
      ],
      "name": "getApproved",
      "outputs": [
        {
          "internalType": "address",
          "name": "",
          "type": "address"
        }
      ],
      "stateMutability": "view",
      "type": "function"
    },
    {
      "inputs": [
        {
          "internalType": "address",
          "name": "owner",
          "type": "address"
        },
        {
          "internalType": "address",
          "name": "operator",
          "type": "address"
        }
      ],
      "name": "isApprovedForAll",
      "outputs": [
        {
          "internalType": "bool",
          "name": "",
          "type": "bool"
        }
      ],
      "stateMutability": "view",
      "type": "function"
    },
    {
      "inputs": [
        {
          "internalType": "address",
          "name": "to",
          "type": "address"
        },
        {
          "internalType": "string",
          "name": "tokenURI",
          "type": "string"
        },
        {
          "internalType": "bytes",
          "name": "signature",
          "type": "bytes"
        }
      ],
      "name": "mint",
      "outputs": [],
      "stateMutability": "nonpayable",
      "type": "function"
    },
    {
      "inputs": [],
      "name": "name",
      "outputs": [
        {
          "internalType": "string",
          "name": "",
          "type": "string"
        }
      ],
      "stateMutability": "view",
      "type": "function"
    },
    {
      "inputs": [],
      "name": "owner",
      "outputs": [
        {
          "internalType": "address",
          "name": "",
          "type": "address"
        }
      ],
      "stateMutability": "view",
      "type": "function"
    },
    {
      "inputs": [
        {
          "internalType": "uint256",
          "name": "tokenId",
          "type": "uint256"
        }
      ],
      "name": "ownerOf",
      "outputs": [
        {
          "internalType": "address",
          "name": "",
          "type": "address"
        }
      ],
      "stateMutability": "view",
      "type": "function"
    },
    {
      "inputs": [],
      "name": "renounceOwnership",
      "outputs": [],
      "stateMutability": "nonpayable",
      "type": "function"
    },
    {
      "inputs": [
        {
          "internalType": "address",
          "name": "from",
          "type": "address"
        },
        {
          "internalType": "address",
          "name": "to",
          "type": "address"
        },
        {
          "internalType": "uint256",
          "name": "tokenId",
          "type": "uint256"
        }
      ],
      "name": "safeTransferFrom",
      "outputs": [],
      "stateMutability": "nonpayable",
      "type": "function"
    },
    {
      "inputs": [
        {
          "internalType": "address",
          "name": "from",
          "type": "address"
        },
        {
          "internalType": "address",
          "name": "to",
          "type": "address"
        },
        {
          "internalType": "uint256",
          "name": "tokenId",
          "type": "uint256"
        },
        {
          "internalType": "bytes",
          "name": "data",
          "type": "bytes"
        }
      ],
      "name": "safeTransferFrom",
      "outputs": [],
      "stateMutability": "nonpayable",
      "type": "function"
    },
    {
      "inputs": [
        {
          "internalType": "address",
          "name": "operator",
          "type": "address"
        },
        {
          "internalType": "bool",
          "name": "approved",
          "type": "bool"
        }
      ],
      "name": "setApprovalForAll",
      "outputs": [],
      "stateMutability": "nonpayable",
      "type": "function"
    },
    {
      "inputs": [],
      "name": "signer",
      "outputs": [
        {
          "internalType": "address",
          "name": "",
          "type": "address"
        }
      ],
      "stateMutability": "view",
      "type": "function"
    },
    {
      "inputs": [
        {
          "internalType": "bytes4",
          "name": "interfaceId",
          "type": "bytes4"
        }
      ],
      "name": "supportsInterface",
      "outputs": [
        {
          "internalType": "bool",
          "name": "",
          "type": "bool"
        }
      ],
      "stateMutability": "view",
      "type": "function"
    },
    {
      "inputs": [],
      "name": "symbol",
      "outputs": [
        {
          "internalType": "string",
          "name": "",
          "type": "string"
        }
      ],
      "stateMutability": "view",
      "type": "function"
    },
    {
      "inputs": [],
      "name": "tokenCounter",
      "outputs": [
        {
          "internalType": "uint256",
          "name": "",
          "type": "uint256"
        }
      ],
      "stateMutability": "view",
      "type": "function"
    },
    {
      "inputs": [
        {
          "internalType": "uint256",
          "name": "tokenId",
          "type": "uint256"
        }
      ],
      "name": "tokenURI",
      "outputs": [
        {
          "internalType": "string",
          "name": "",
          "type": "string"
        }
      ],
      "stateMutability": "view",
      "type": "function"
    },
    {
      "inputs": [
        {
          "internalType": "address",
          "name": "from",
          "type": "address"
        },
        {
          "internalType": "address",
          "name": "to",
          "type": "address"
        },
        {
          "internalType": "uint256",
          "name": "tokenId",
          "type": "uint256"
        }
      ],
      "name": "transferFrom",
      "outputs": [],
      "stateMutability": "nonpayable",
      "type": "function"
    },
    {
      "inputs": [
        {
          "internalType": "address",
          "name": "newOwner",
          "type": "address"
        }
      ],
      "name": "transferOwnership",
      "outputs": [],
      "stateMutability": "nonpayable",
      "type": "function"
    },
    {
      "inputs": [
        {
          "internalType": "address",
          "name": "_newSigner",
          "type": "address"
        }
      ],
      "name": "updateSigner",
      "outputs": [],
      "stateMutability": "nonpayable",
      "type": "function"
    }
  ],
  "bytecode": "0x60806040523480156200001157600080fd5b5060405162003c7038038062003c70833981810160405281019062000037919062000269565b6040518060400160405280600b81526020017f4c617a794d696e744e46540000000000000000000000000000000000000000008152506040518060400160405280600381526020017f4c4d4e00000000000000000000000000000000000000000000000000000000008152508160009081620000b4919062000515565b508060019081620000c6919062000515565b505050620000e9620000dd6200013160201b60201c565b6200013960201b60201c565b80600860006101000a81548173ffffffffffffffffffffffffffffffffffffffff021916908373ffffffffffffffffffffffffffffffffffffffff16021790555050620005fc565b600033905090565b6000600760009054906101000a900473ffffffffffffffffffffffffffffffffffffffff16905081600760006101000a81548173ffffffffffffffffffffffffffffffffffffffff021916908373ffffffffffffffffffffffffffffffffffffffff1602179055508173ffffffffffffffffffffffffffffffffffffffff168173ffffffffffffffffffffffffffffffffffffffff167f8be0079c531659141344cd1fd0a4f28419497f9722a3daafe3b4186f6b6457e060405160405180910390a35050565b600080fd5b600073ffffffffffffffffffffffffffffffffffffffff82169050919050565b6000620002318262000204565b9050919050565b620002438162000224565b81146200024f57600080fd5b50565b600081519050620002638162000238565b92915050565b600060208284031215620002825762000281620001ff565b5b6000620002928482850162000252565b91505092915050565b600081519050919050565b7f4e487b7100000000000000000000000000000000000000000000000000000000600052604160045260246000fd5b7f4e487b7100000000000000000000000000000000000000000000000000000000600052602260045260246000fd5b600060028204905060018216806200031d57607f821691505b602082108103620003335762000332620002d5565b5b50919050565b60008190508160005260206000209050919050565b60006020601f8301049050919050565b600082821b905092915050565b6000600883026200039d7fffffffffffffffffffffffffffffffffffffffffffffffffffffffffffffffff826200035e565b620003a986836200035e565b95508019841693508086168417925050509392505050565b6000819050919050565b6000819050919050565b6000620003f6620003f0620003ea84620003c1565b620003cb565b620003c1565b9050919050565b6000819050919050565b6200041283620003d5565b6200042a6200042182620003fd565b8484546200036b565b825550505050565b600090565b6200044162000432565b6200044e81848462000407565b505050565b5b8181101562000476576200046a60008262000437565b60018101905062000454565b5050565b601f821115620004c5576200048f8162000339565b6200049a846200034e565b81016020851015620004aa578190505b620004c2620004b9856200034e565b83018262000453565b50505b505050565b600082821c905092915050565b6000620004ea60001984600802620004ca565b1980831691505092915050565b6000620005058383620004d7565b9150826002028217905092915050565b62000520826200029b565b67ffffffffffffffff8111156200053c576200053b620002a6565b5b62000548825462000304565b620005558282856200047a565b600060209050601f8311600181146200058d576000841562000578578287015190505b620005848582620004f7565b865550620005f4565b601f1984166200059d8662000339565b60005b82811015620005c757848901518255600182019150602085019450602081019050620005a0565b86831015620005e75784890151620005e3601f891682620004d7565b8355505b6001600288020188555050505b505050505050565b613664806200060c6000396000f3fe608060405234801561001057600080fd5b506004361061012c5760003560e01c80638d75533f116100ad578063b88d4fde11610071578063b88d4fde1461031b578063c87b56dd14610337578063d082e38114610367578063e985e9c514610385578063f2fde38b146103b55761012c565b80638d75533f1461028b5780638da5cb5b146102a757806395d89b41146102c5578063a22cb465146102e3578063a7ecd37e146102ff5761012c565b806323b872dd116100f457806323b872dd146101e957806342842e0e146102055780636352211e1461022157806370a0823114610251578063715018a6146102815761012c565b806301ffc9a71461013157806306fdde0314610161578063081812fc1461017f578063095ea7b3146101af578063238ac933146101cb575b600080fd5b61014b600480360381019061014691906120c0565b6103d1565b6040516101589190612108565b60405180910390f35b610169610432565b60405161017691906121b3565b60405180910390f35b6101996004803603810190610194919061220b565b6104c4565b6040516101a69190612279565b60405180910390f35b6101c960048036038101906101c491906122c0565b61050a565b005b6101d3610621565b6040516101e09190612279565b60405180910390f35b61020360048036038101906101fe9190612300565b610647565b005b61021f600480360381019061021a9190612300565b6106a7565b005b61023b6004803603810190610236919061220b565b6106c7565b6040516102489190612279565b60405180910390f35b61026b60048036038101906102669190612353565b61074d565b604051610278919061238f565b60405180910390f35b610289610804565b005b6102a560048036038101906102a09190612580565b610818565b005b6102af610928565b6040516102bc9190612279565b60405180910390f35b6102cd610952565b6040516102da91906121b3565b60405180910390f35b6102fd60048036038101906102f89190612637565b6109e4565b005b61031960048036038101906103149190612353565b6109fa565b005b61033560048036038101906103309190612677565b610a46565b005b610351600480360381019061034c919061220b565b610aa8565b60405161035e91906121b3565b60405180910390f35b61036f610bba565b60405161037c919061238f565b60405180910390f35b61039f600480360381019061039a91906126fa565b610bc0565b6040516103ac9190612108565b60405180910390f35b6103cf60048036038101906103ca9190612353565b610c54565b005b6000634906490660e01b7bffffffffffffffffffffffffffffffffffffffffffffffffffffffff1916827bffffffffffffffffffffffffffffffffffffffffffffffffffffffff1916148061042b575061042a82610cd7565b5b9050919050565b60606000805461044190612769565b80601f016020809104026020016040519081016040528092919081815260200182805461046d90612769565b80156104ba5780601f1061048f576101008083540402835291602001916104ba565b820191906000526020600020905b81548152906001019060200180831161049d57829003601f168201915b5050505050905090565b60006104cf82610db9565b6004600083815260200190815260200160002060009054906101000a900473ffffffffffffffffffffffffffffffffffffffff169050919050565b6000610515826106c7565b90508073ffffffffffffffffffffffffffffffffffffffff168373ffffffffffffffffffffffffffffffffffffffff1603610585576040517f08c379a000000000000000000000000000000000000000000000000000000000815260040161057c9061280c565b60405180910390fd5b8073ffffffffffffffffffffffffffffffffffffffff166105a4610e04565b73ffffffffffffffffffffffffffffffffffffffff1614806105d357506105d2816105cd610e04565b610bc0565b5b610612576040517f08c379a00000000000000000000000000000000000000000000000000000000081526004016106099061289e565b60405180910390fd5b61061c8383610e0c565b505050565b600860009054906101000a900473ffffffffffffffffffffffffffffffffffffffff1681565b610658610652610e04565b82610ec5565b610697576040517f08c379a000000000000000000000000000000000000000000000000000000000815260040161068e90612930565b60405180910390fd5b6106a2838383610f5a565b505050565b6106c283838360405180602001604052806000815250610a46565b505050565b6000806106d383611253565b9050600073ffffffffffffffffffffffffffffffffffffffff168173ffffffffffffffffffffffffffffffffffffffff1603610744576040517f08c379a000000000000000000000000000000000000000000000000000000000815260040161073b9061299c565b60405180910390fd5b80915050919050565b60008073ffffffffffffffffffffffffffffffffffffffff168273ffffffffffffffffffffffffffffffffffffffff16036107bd576040517f08c379a00000000000000000000000000000000000000000000000000000000081526004016107b490612a2e565b60405180910390fd5b600360008373ffffffffffffffffffffffffffffffffffffffff1673ffffffffffffffffffffffffffffffffffffffff168152602001908152602001600020549050919050565b61080c611290565b610816600061130e565b565b6000838360405160200161082d929190612ad2565b6040516020818303038152906040528051906020012090506000610850826113d4565b9050600061085e828561140a565b9050600860009054906101000a900473ffffffffffffffffffffffffffffffffffffffff1673ffffffffffffffffffffffffffffffffffffffff168173ffffffffffffffffffffffffffffffffffffffff16146108f0576040517f08c379a00000000000000000000000000000000000000000000000000000000081526004016108e790612b46565b60405180910390fd5b6009600081548092919061090390612b95565b919050555061091486600954611431565b6109206009548661164e565b505050505050565b6000600760009054906101000a900473ffffffffffffffffffffffffffffffffffffffff16905090565b60606001805461096190612769565b80601f016020809104026020016040519081016040528092919081815260200182805461098d90612769565b80156109da5780601f106109af576101008083540402835291602001916109da565b820191906000526020600020905b8154815290600101906020018083116109bd57829003601f168201915b5050505050905090565b6109f66109ef610e04565b83836116f2565b5050565b610a02611290565b80600860006101000a81548173ffffffffffffffffffffffffffffffffffffffff021916908373ffffffffffffffffffffffffffffffffffffffff16021790555050565b610a57610a51610e04565b83610ec5565b610a96576040517f08c379a0000000000000000000000000000000000000000000000000000000008152600401610a8d90612930565b60405180910390fd5b610aa28484848461185e565b50505050565b6060610ab382610db9565b6000600660008481526020019081526020016000208054610ad390612769565b80601f0160208091040260200160405190810160405280929190818152602001828054610aff90612769565b8015610b4c5780601f10610b2157610100808354040283529160200191610b4c565b820191906000526020600020905b815481529060010190602001808311610b2f57829003601f168201915b505050505090506000610b5d6118ba565b90506000815103610b72578192505050610bb5565b600082511115610ba7578082604051602001610b8f929190612bdd565b60405160208183030381529060405292505050610bb5565b610bb0846118d1565b925050505b919050565b60095481565b6000600560008473ffffffffffffffffffffffffffffffffffffffff1673ffffffffffffffffffffffffffffffffffffffff16815260200190815260200160002060008373ffffffffffffffffffffffffffffffffffffffff1673ffffffffffffffffffffffffffffffffffffffff16815260200190815260200160002060009054906101000a900460ff16905092915050565b610c5c611290565b600073ffffffffffffffffffffffffffffffffffffffff168173ffffffffffffffffffffffffffffffffffffffff1603610ccb576040517f08c379a0000000000000000000000000000000000000000000000000000000008152600401610cc290612c73565b60405180910390fd5b610cd48161130e565b50565b60007f80ac58cd000000000000000000000000000000000000000000000000000000007bffffffffffffffffffffffffffffffffffffffffffffffffffffffff1916827bffffffffffffffffffffffffffffffffffffffffffffffffffffffff19161480610da257507f5b5e139f000000000000000000000000000000000000000000000000000000007bffffffffffffffffffffffffffffffffffffffffffffffffffffffff1916827bffffffffffffffffffffffffffffffffffffffffffffffffffffffff1916145b80610db25750610db182611939565b5b9050919050565b610dc2816119a3565b610e01576040517f08c379a0000000000000000000000000000000000000000000000000000000008152600401610df89061299c565b60405180910390fd5b50565b600033905090565b816004600083815260200190815260200160002060006101000a81548173ffffffffffffffffffffffffffffffffffffffff021916908373ffffffffffffffffffffffffffffffffffffffff160217905550808273ffffffffffffffffffffffffffffffffffffffff16610e7f836106c7565b73ffffffffffffffffffffffffffffffffffffffff167f8c5be1e5ebec7d5bd14f71427d1e84f3dd0314c0f7b2291e5b200ac8c7c3b92560405160405180910390a45050565b600080610ed1836106c7565b90508073ffffffffffffffffffffffffffffffffffffffff168473ffffffffffffffffffffffffffffffffffffffff161480610f135750610f128185610bc0565b5b80610f5157508373ffffffffffffffffffffffffffffffffffffffff16610f39846104c4565b73ffffffffffffffffffffffffffffffffffffffff16145b91505092915050565b8273ffffffffffffffffffffffffffffffffffffffff16610f7a826106c7565b73ffffffffffffffffffffffffffffffffffffffff1614610fd0576040517f08c379a0000000000000000000000000000000000000000000000000000000008152600401610fc790612d05565b60405180910390fd5b600073ffffffffffffffffffffffffffffffffffffffff168273ffffffffffffffffffffffffffffffffffffffff160361103f576040517f08c379a000000000000000000000000000000000000000000000000000000000815260040161103690612d97565b60405180910390fd5b61104c83838360016119e4565b8273ffffffffffffffffffffffffffffffffffffffff1661106c826106c7565b73ffffffffffffffffffffffffffffffffffffffff16146110c2576040517f08c379a00000000000000000000000000000000000000000000000000000000081526004016110b990612d05565b60405180910390fd5b6004600082815260200190815260200160002060006101000a81549073ffffffffffffffffffffffffffffffffffffffff02191690556001600360008573ffffffffffffffffffffffffffffffffffffffff1673ffffffffffffffffffffffffffffffffffffffff168152602001908152602001600020600082825403925050819055506001600360008473ffffffffffffffffffffffffffffffffffffffff1673ffffffffffffffffffffffffffffffffffffffff16815260200190815260200160002060008282540192505081905550816002600083815260200190815260200160002060006101000a81548173ffffffffffffffffffffffffffffffffffffffff021916908373ffffffffffffffffffffffffffffffffffffffff160217905550808273ffffffffffffffffffffffffffffffffffffffff168473ffffffffffffffffffffffffffffffffffffffff167fddf252ad1be2c89b69c2b068fc378daa952ba7f163c4a11628f55a4df523b3ef60405160405180910390a461124e83838360016119ea565b505050565b60006002600083815260200190815260200160002060009054906101000a900473ffffffffffffffffffffffffffffffffffffffff169050919050565b611298610e04565b73ffffffffffffffffffffffffffffffffffffffff166112b6610928565b73ffffffffffffffffffffffffffffffffffffffff161461130c576040517f08c379a000000000000000000000000000000000000000000000000000000000815260040161130390612e03565b60405180910390fd5b565b6000600760009054906101000a900473ffffffffffffffffffffffffffffffffffffffff16905081600760006101000a81548173ffffffffffffffffffffffffffffffffffffffff021916908373ffffffffffffffffffffffffffffffffffffffff1602179055508173ffffffffffffffffffffffffffffffffffffffff168173ffffffffffffffffffffffffffffffffffffffff167f8be0079c531659141344cd1fd0a4f28419497f9722a3daafe3b4186f6b6457e060405160405180910390a35050565b60007f19457468657265756d205369676e6564204d6573736167653a0a33320000000060005281601c52603c6000209050919050565b600080600061141985856119f0565b9150915061142681611a41565b819250505092915050565b600073ffffffffffffffffffffffffffffffffffffffff168273ffffffffffffffffffffffffffffffffffffffff16036114a0576040517f08c379a000000000000000000000000000000000000000000000000000000000815260040161149790612e6f565b60405180910390fd5b6114a9816119a3565b156114e9576040517f08c379a00000000000000000000000000000000000000000000000000000000081526004016114e090612edb565b60405180910390fd5b6114f76000838360016119e4565b611500816119a3565b15611540576040517f08c379a000000000000000000000000000000000000000000000000000000000815260040161153790612edb565b60405180910390fd5b6001600360008473ffffffffffffffffffffffffffffffffffffffff1673ffffffffffffffffffffffffffffffffffffffff16815260200190815260200160002060008282540192505081905550816002600083815260200190815260200160002060006101000a81548173ffffffffffffffffffffffffffffffffffffffff021916908373ffffffffffffffffffffffffffffffffffffffff160217905550808273ffffffffffffffffffffffffffffffffffffffff16600073ffffffffffffffffffffffffffffffffffffffff167fddf252ad1be2c89b69c2b068fc378daa952ba7f163c4a11628f55a4df523b3ef60405160405180910390a461164a6000838360016119ea565b5050565b611657826119a3565b611696576040517f08c379a000000000000000000000000000000000000000000000000000000000815260040161168d90612f6d565b60405180910390fd5b806006600084815260200190815260200160002090816116b69190613139565b507ff8e1a15aba9398e019f0b49df1a4fde98ee17ae345cb5f6b5e2c27f5033e8ce7826040516116e6919061238f565b60405180910390a15050565b8173ffffffffffffffffffffffffffffffffffffffff168373ffffffffffffffffffffffffffffffffffffffff1603611760576040517f08c379a000000000000000000000000000000000000000000000000000000000815260040161175790613257565b60405180910390fd5b80600560008573ffffffffffffffffffffffffffffffffffffffff1673ffffffffffffffffffffffffffffffffffffffff16815260200190815260200160002060008473ffffffffffffffffffffffffffffffffffffffff1673ffffffffffffffffffffffffffffffffffffffff16815260200190815260200160002060006101000a81548160ff0219169083151502179055508173ffffffffffffffffffffffffffffffffffffffff168373ffffffffffffffffffffffffffffffffffffffff167f17307eab39ab6107e8899845ad3d59bd9653f200f220920489ca2b5937696c31836040516118519190612108565b60405180910390a3505050565b611869848484610f5a565b61187584848484611ba7565b6118b4576040517f08c379a00000000000000000000000000000000000000000000000000000000081526004016118ab906132e9565b60405180910390fd5b50505050565b606060405180602001604052806000815250905090565b60606118dc82610db9565b60006118e66118ba565b905060008151116119065760405180602001604052806000815250611931565b8061191084611d2e565b604051602001611921929190612bdd565b6040516020818303038152906040525b915050919050565b60007f01ffc9a7000000000000000000000000000000000000000000000000000000007bffffffffffffffffffffffffffffffffffffffffffffffffffffffff1916827bffffffffffffffffffffffffffffffffffffffffffffffffffffffff1916149050919050565b60008073ffffffffffffffffffffffffffffffffffffffff166119c583611253565b73ffffffffffffffffffffffffffffffffffffffff1614159050919050565b50505050565b50505050565b6000806041835103611a315760008060006020860151925060408601519150606086015160001a9050611a2587828585611dfc565b94509450505050611a3a565b60006002915091505b9250929050565b60006004811115611a5557611a54613309565b5b816004811115611a6857611a67613309565b5b0315611ba45760016004811115611a8257611a81613309565b5b816004811115611a9557611a94613309565b5b03611ad5576040517f08c379a0000000000000000000000000000000000000000000000000000000008152600401611acc90613384565b60405180910390fd5b60026004811115611ae957611ae8613309565b5b816004811115611afc57611afb613309565b5b03611b3c576040517f08c379a0000000000000000000000000000000000000000000000000000000008152600401611b33906133f0565b60405180910390fd5b60036004811115611b5057611b4f613309565b5b816004811115611b6357611b62613309565b5b03611ba3576040517f08c379a0000000000000000000000000000000000000000000000000000000008152600401611b9a90613482565b60405180910390fd5b5b50565b6000611bc88473ffffffffffffffffffffffffffffffffffffffff16611ede565b15611d21578373ffffffffffffffffffffffffffffffffffffffff1663150b7a02611bf1610e04565b8786866040518563ffffffff1660e01b8152600401611c1394939291906134f7565b6020604051808303816000875af1925050508015611c4f57506040513d601f19601f82011682018060405250810190611c4c9190613558565b60015b611cd1573d8060008114611c7f576040519150601f19603f3d011682016040523d82523d6000602084013e611c84565b606091505b506000815103611cc9576040517f08c379a0000000000000000000000000000000000000000000000000000000008152600401611cc0906132e9565b60405180910390fd5b805181602001fd5b63150b7a0260e01b7bffffffffffffffffffffffffffffffffffffffffffffffffffffffff1916817bffffffffffffffffffffffffffffffffffffffffffffffffffffffff191614915050611d26565b600190505b949350505050565b606060006001611d3d84611f01565b01905060008167ffffffffffffffff811115611d5c57611d5b6123b4565b5b6040519080825280601f01601f191660200182016040528015611d8e5781602001600182028036833780820191505090505b509050600082602001820190505b600115611df1578080600190039150507f3031323334353637383961626364656600000000000000000000000000000000600a86061a8153600a8581611de557611de4613585565b5b04945060008503611d9c575b819350505050919050565b6000807f7fffffffffffffffffffffffffffffff5d576e7357a4501ddfe92f46681b20a08360001c1115611e37576000600391509150611ed5565b600060018787878760405160008152602001604052604051611e5c94939291906135e9565b6020604051602081039080840390855afa158015611e7e573d6000803e3d6000fd5b505050602060405103519050600073ffffffffffffffffffffffffffffffffffffffff168173ffffffffffffffffffffffffffffffffffffffff1603611ecc57600060019250925050611ed5565b80600092509250505b94509492505050565b6000808273ffffffffffffffffffffffffffffffffffffffff163b119050919050565b600080600090507a184f03e93ff9f4daa797ed6e38ed64bf6a1f0100000000000000008310611f5f577a184f03e93ff9f4daa797ed6e38ed64bf6a1f0100000000000000008381611f5557611f54613585565b5b0492506040810190505b6d04ee2d6d415b85acef81000000008310611f9c576d04ee2d6d415b85acef81000000008381611f9257611f91613585565b5b0492506020810190505b662386f26fc100008310611fcb57662386f26fc100008381611fc157611fc0613585565b5b0492506010810190505b6305f5e1008310611ff4576305f5e1008381611fea57611fe9613585565b5b0492506008810190505b612710831061201957612710838161200f5761200e613585565b5b0492506004810190505b6064831061203c576064838161203257612031613585565b5b0492506002810190505b600a831061204b576001810190505b80915050919050565b6000604051905090565b600080fd5b600080fd5b60007fffffffff0000000000000000000000000000000000000000000000000000000082169050919050565b61209d81612068565b81146120a857600080fd5b50565b6000813590506120ba81612094565b92915050565b6000602082840312156120d6576120d561205e565b5b60006120e4848285016120ab565b91505092915050565b60008115159050919050565b612102816120ed565b82525050565b600060208201905061211d60008301846120f9565b92915050565b600081519050919050565b600082825260208201905092915050565b60005b8381101561215d578082015181840152602081019050612142565b60008484015250505050565b6000601f19601f8301169050919050565b600061218582612123565b61218f818561212e565b935061219f81856020860161213f565b6121a881612169565b840191505092915050565b600060208201905081810360008301526121cd818461217a565b905092915050565b6000819050919050565b6121e8816121d5565b81146121f357600080fd5b50565b600081359050612205816121df565b92915050565b6000602082840312156122215761222061205e565b5b600061222f848285016121f6565b91505092915050565b600073ffffffffffffffffffffffffffffffffffffffff82169050919050565b600061226382612238565b9050919050565b61227381612258565b82525050565b600060208201905061228e600083018461226a565b92915050565b61229d81612258565b81146122a857600080fd5b50565b6000813590506122ba81612294565b92915050565b600080604083850312156122d7576122d661205e565b5b60006122e5858286016122ab565b92505060206122f6858286016121f6565b9150509250929050565b6000806000606084860312156123195761231861205e565b5b6000612327868287016122ab565b9350506020612338868287016122ab565b9250506040612349868287016121f6565b9150509250925092565b6000602082840312156123695761236861205e565b5b6000612377848285016122ab565b91505092915050565b612389816121d5565b82525050565b60006020820190506123a46000830184612380565b92915050565b600080fd5b600080fd5b7f4e487b7100000000000000000000000000000000000000000000000000000000600052604160045260246000fd5b6123ec82612169565b810181811067ffffffffffffffff8211171561240b5761240a6123b4565b5b80604052505050565b600061241e612054565b905061242a82826123e3565b919050565b600067ffffffffffffffff82111561244a576124496123b4565b5b61245382612169565b9050602081019050919050565b82818337600083830152505050565b600061248261247d8461242f565b612414565b90508281526020810184848401111561249e5761249d6123af565b5b6124a9848285612460565b509392505050565b600082601f8301126124c6576124c56123aa565b5b81356124d684826020860161246f565b91505092915050565b600067ffffffffffffffff8211156124fa576124f96123b4565b5b61250382612169565b9050602081019050919050565b600061252361251e846124df565b612414565b90508281526020810184848401111561253f5761253e6123af565b5b61254a848285612460565b509392505050565b600082601f830112612567576125666123aa565b5b8135612577848260208601612510565b91505092915050565b6000806000606084860312156125995761259861205e565b5b60006125a7868287016122ab565b935050602084013567ffffffffffffffff8111156125c8576125c7612063565b5b6125d4868287016124b1565b925050604084013567ffffffffffffffff8111156125f5576125f4612063565b5b61260186828701612552565b9150509250925092565b612614816120ed565b811461261f57600080fd5b50565b6000813590506126318161260b565b92915050565b6000806040838503121561264e5761264d61205e565b5b600061265c858286016122ab565b925050602061266d85828601612622565b9150509250929050565b600080600080608085870312156126915761269061205e565b5b600061269f878288016122ab565b94505060206126b0878288016122ab565b93505060406126c1878288016121f6565b925050606085013567ffffffffffffffff8111156126e2576126e1612063565b5b6126ee87828801612552565b91505092959194509250565b600080604083850312156127115761271061205e565b5b600061271f858286016122ab565b9250506020612730858286016122ab565b9150509250929050565b7f4e487b7100000000000000000000000000000000000000000000000000000000600052602260045260246000fd5b6000600282049050600182168061278157607f821691505b6020821081036127945761279361273a565b5b50919050565b7f4552433732313a20617070726f76616c20746f2063757272656e74206f776e6560008201527f7200000000000000000000000000000000000000000000000000000000000000602082015250565b60006127f660218361212e565b91506128018261279a565b604082019050919050565b60006020820190508181036000830152612825816127e9565b9050919050565b7f4552433732313a20617070726f76652063616c6c6572206973206e6f7420746f60008201527f6b656e206f776e6572206f7220617070726f76656420666f7220616c6c000000602082015250565b6000612888603d8361212e565b91506128938261282c565b604082019050919050565b600060208201905081810360008301526128b78161287b565b9050919050565b7f4552433732313a2063616c6c6572206973206e6f7420746f6b656e206f776e6560008201527f72206f7220617070726f76656400000000000000000000000000000000000000602082015250565b600061291a602d8361212e565b9150612925826128be565b604082019050919050565b600060208201905081810360008301526129498161290d565b9050919050565b7f4552433732313a20696e76616c696420746f6b656e2049440000000000000000600082015250565b600061298660188361212e565b915061299182612950565b602082019050919050565b600060208201905081810360008301526129b581612979565b9050919050565b7f4552433732313a2061646472657373207a65726f206973206e6f74206120766160008201527f6c6964206f776e65720000000000000000000000000000000000000000000000602082015250565b6000612a1860298361212e565b9150612a23826129bc565b604082019050919050565b60006020820190508181036000830152612a4781612a0b565b9050919050565b60008160601b9050919050565b6000612a6682612a4e565b9050919050565b6000612a7882612a5b565b9050919050565b612a90612a8b82612258565b612a6d565b82525050565b600081905092915050565b6000612aac82612123565b612ab68185612a96565b9350612ac681856020860161213f565b80840191505092915050565b6000612ade8285612a7f565b601482019150612aee8284612aa1565b91508190509392505050565b7f496e76616c6964207369676e6174757265000000000000000000000000000000600082015250565b6000612b3060118361212e565b9150612b3b82612afa565b602082019050919050565b60006020820190508181036000830152612b5f81612b23565b9050919050565b7f4e487b7100000000000000000000000000000000000000000000000000000000600052601160045260246000fd5b6000612ba0826121d5565b91507fffffffffffffffffffffffffffffffffffffffffffffffffffffffffffffffff8203612bd257612bd1612b66565b5b600182019050919050565b6000612be98285612aa1565b9150612bf58284612aa1565b91508190509392505050565b7f4f776e61626c653a206e6577206f776e657220697320746865207a65726f206160008201527f6464726573730000000000000000000000000000000000000000000000000000602082015250565b6000612c5d60268361212e565b9150612c6882612c01565b604082019050919050565b60006020820190508181036000830152612c8c81612c50565b9050919050565b7f4552433732313a207472616e736665722066726f6d20696e636f72726563742060008201527f6f776e6572000000000000000000000000000000000000000000000000000000602082015250565b6000612cef60258361212e565b9150612cfa82612c93565b604082019050919050565b60006020820190508181036000830152612d1e81612ce2565b9050919050565b7f4552433732313a207472616e7366657220746f20746865207a65726f2061646460008201527f7265737300000000000000000000000000000000000000000000000000000000602082015250565b6000612d8160248361212e565b9150612d8c82612d25565b604082019050919050565b60006020820190508181036000830152612db081612d74565b9050919050565b7f4f776e61626c653a2063616c6c6572206973206e6f7420746865206f776e6572600082015250565b6000612ded60208361212e565b9150612df882612db7565b602082019050919050565b60006020820190508181036000830152612e1c81612de0565b9050919050565b7f4552433732313a206d696e7420746f20746865207a65726f2061646472657373600082015250565b6000612e5960208361212e565b9150612e6482612e23565b602082019050919050565b60006020820190508181036000830152612e8881612e4c565b9050919050565b7f4552433732313a20746f6b656e20616c7265616479206d696e74656400000000600082015250565b6000612ec5601c8361212e565b9150612ed082612e8f565b602082019050919050565b60006020820190508181036000830152612ef481612eb8565b9050919050565b7f45524337323155524953746f726167653a2055524920736574206f66206e6f6e60008201527f6578697374656e7420746f6b656e000000000000000000000000000000000000602082015250565b6000612f57602e8361212e565b9150612f6282612efb565b604082019050919050565b60006020820190508181036000830152612f8681612f4a565b9050919050565b60008190508160005260206000209050919050565b60006020601f8301049050919050565b600082821b905092915050565b600060088302612fef7fffffffffffffffffffffffffffffffffffffffffffffffffffffffffffffffff82612fb2565b612ff98683612fb2565b95508019841693508086168417925050509392505050565b6000819050919050565b600061303661303161302c846121d5565b613011565b6121d5565b9050919050565b6000819050919050565b6130508361301b565b61306461305c8261303d565b848454612fbf565b825550505050565b600090565b61307961306c565b613084818484613047565b505050565b5b818110156130a85761309d600082613071565b60018101905061308a565b5050565b601f8211156130ed576130be81612f8d565b6130c784612fa2565b810160208510156130d6578190505b6130ea6130e285612fa2565b830182613089565b50505b505050565b600082821c905092915050565b6000613110600019846008026130f2565b1980831691505092915050565b600061312983836130ff565b9150826002028217905092915050565b61314282612123565b67ffffffffffffffff81111561315b5761315a6123b4565b5b6131658254612769565b6131708282856130ac565b600060209050601f8311600181146131a35760008415613191578287015190505b61319b858261311d565b865550613203565b601f1984166131b186612f8d565b60005b828110156131d9578489015182556001820191506020850194506020810190506131b4565b868310156131f657848901516131f2601f8916826130ff565b8355505b6001600288020188555050505b505050505050565b7f4552433732313a20617070726f766520746f2063616c6c657200000000000000600082015250565b600061324160198361212e565b915061324c8261320b565b602082019050919050565b6000602082019050818103600083015261327081613234565b9050919050565b7f4552433732313a207472616e7366657220746f206e6f6e20455243373231526560008201527f63656976657220696d706c656d656e7465720000000000000000000000000000602082015250565b60006132d360328361212e565b91506132de82613277565b604082019050919050565b60006020820190508181036000830152613302816132c6565b9050919050565b7f4e487b7100000000000000000000000000000000000000000000000000000000600052602160045260246000fd5b7f45434453413a20696e76616c6964207369676e61747572650000000000000000600082015250565b600061336e60188361212e565b915061337982613338565b602082019050919050565b6000602082019050818103600083015261339d81613361565b9050919050565b7f45434453413a20696e76616c6964207369676e6174757265206c656e67746800600082015250565b60006133da601f8361212e565b91506133e5826133a4565b602082019050919050565b60006020820190508181036000830152613409816133cd565b9050919050565b7f45434453413a20696e76616c6964207369676e6174757265202773272076616c60008201527f7565000000000000000000000000000000000000000000000000000000000000602082015250565b600061346c60228361212e565b915061347782613410565b604082019050919050565b6000602082019050818103600083015261349b8161345f565b9050919050565b600081519050919050565b600082825260208201905092915050565b60006134c9826134a2565b6134d381856134ad565b93506134e381856020860161213f565b6134ec81612169565b840191505092915050565b600060808201905061350c600083018761226a565b613519602083018661226a565b6135266040830185612380565b818103606083015261353881846134be565b905095945050505050565b60008151905061355281612094565b92915050565b60006020828403121561356e5761356d61205e565b5b600061357c84828501613543565b91505092915050565b7f4e487b7100000000000000000000000000000000000000000000000000000000600052601260045260246000fd5b6000819050919050565b6135c7816135b4565b82525050565b600060ff82169050919050565b6135e3816135cd565b82525050565b60006080820190506135fe60008301876135be565b61360b60208301866135da565b61361860408301856135be565b61362560608301846135be565b9594505050505056fea26469706673582212204d455fcdc24a81e7881b8a0de3827529f8400706da761fb70b7867983d46aa0364736f6c63430008130033",
  "linkReferences": {},
  "deployedLinkReferences": {}
}